:020000040800F2
:1000000048050020450100088314000885130008F6
:1000100081140008690200087D1800080000000033
:10002000000000000000000000000000871400082D
:100030006B02000800000000851400088914000805
:100040005F0100085F0100085F0100085F01000810
:100050005F0100085F0100085F0100085F01000800
:100060005F0100085F0100085F0100085F010008F0
:100070005F0100085F0100085F0100085F010008E0
:100080005F0100085F0100085F0100085F010008D0
:100090005F0100085F0100085F0100085F010008C0
:1000A0005F0100085F0100085F0100085F010008B0
:1000B0005F0100085F0100085F0100085F010008A0
:1000C0005F0100085F0100085F0100085F01000890
:1000D0005F010008391700085F0100085F01000890
:1000E0005F0100085F0100085F0100085F01000870
:1000F0005F0100085F0100085F0100085F01000860
:100100005F0100085F0100085F0100085F0100084F
:100110005F0100085F0100085F0100085F0100083F
:100120005F0100085F0100085F0100085F0100082F
:10013000DFF80CD000F06CF8004800475D1D0008A7
:10014000480500200648804706480047FEE7FEE7CE
:10015000FEE7FEE7FEE7FEE7FEE7FEE7FEE7FEE777
:10016000EB14000831010008202A04DB203A21FAB0
:1001700002F00021704721FA02F3D040C2F12002C0
:100180009140084319467047D2B201E000F8012BB4
:10019000491EFBD270470022F6E710B513460A4607
:1001A00004461946FFF7F0FF204610BD2DE9F05F29
:1001B0000546002092469B468846064681464024D6
:1001C0001BE02846414647462246FFF7CDFF5346EF
:1001D0005A46C01A914110D311461846224600F0E3
:1001E00029F82D1A67EB01084F462246012000210D
:1001F00000F020F817EB00094E41201EA4F1010485
:10020000DFDC484631462A464346BDE8F09F000001
:10021000064C074D06E0E06840F0010394E8070053
:1002200098471034AC42F6D3FFF786FF441E00080F
:10023000641E0008202A04DB203A00FA02F10020A4
:1002400070479140C2F1200320FA03F31943904014
:100250007047000001220249024801F011B8000075
:10026000E400002018000020FEE7704772B6FEE7A9
:1002700070B586B000250E460446049500F048FA95
:100280000120CDE90050CDE9024604A9684600F0FE
:10029000A1F9044600F0F2F914B1012006B070BDD6
:1002A0000020FBE710B500F033FA03493420C860A2
:1002B000BDE8104000F0E2B900200240002A07D05B
:1002C00000EB8202121F01E008C808C18242FBD283
:1002D000704700002DE9F041164688460546002487
:1002E00000F016FA0E4F13E058F824200023294698
:1002F000022000F0CDF910B10320BDE8F08158F8DC
:1003000024002968814201D00220F6E7641C2D1DDB
:10031000B44201D2BD42E7D900F0B0F90020ECE7C9
:10032000FCFF030806490020C8610648016941F046
:1003300004010161016941F0400101617047000061
:100340006000002000200240064A0021D1610649D9
:100350000A6942F002020A614861086940F04000FF
:10036000086170476000002000200240044B00221A
:10037000DA61044A136943F0010313610180704795
:10038000600000200020024014480022C168CB0613
:10039000134904D5CA6942F00202CA611022C36837
:1003A0005B0705D5CB6943F00103CB6142F0040242
:1003B000C369DB0707D0CB6943F00403CB61C16994
:1003C00021F00101C161A2F58071013901D0C26043
:1003D0007047C16921F00101C161704700200240EE
:1003E0006000002070B5054600F0A2FA0646114CE8
:1003F00009E0681C07D025B100F09AFA801BA842DA
:1004000001D9032070BDE068C007F2D1E068800622
:1004100001D52020E060E068C00605D4E069C0078F
:1004200002D1E068400703D5FFF7AEFF012070BDA1
:10043000002070BD0020024010B590F8211000226D
:10044000022905D00421816380F82020012010BDFD
:1004500001680B6823F00E030B6001680B6823F042
:1004600001030B6090F84030C46B012101FA03F3E3
:10047000636080F8211080F82020104610BD000035
:100480002DE9F05F90F821100024022903D0042107
:100490008163012485E001680A6822F00E020A6087
:1004A00001680A6822F001020A603F4E3E4FB21511
:1004B000DFF8F4C0DFF8F090DFF8ECA0DFF8E8B088
:1004C000DFF8E4E00168783F13011502ACF1640C39
:1004D000A9F15009AAF13C0AABF1280BAEF1140EB8
:1004E0004FF48018B14227D9B9420ED0614512D0DD
:1004F00049451DD0514518D0594518D0714501D1F5
:10050000424615E0294EB14201D1012210E0274EAA
:100510001436B14201D110220AE0244E2836B142ED
:1005200006D0224A3C32914201D11A4600E02A46C6
:100530001E49091F0A602BE0B94213D0614517D04C
:10054000494522D051451DD059451DD0714501D195
:1005500042461AE0B14202D14FF0807215E0134ECC
:10056000B14201D1012210E0104E1436B14201D146
:1005700010220AE00D4E2836B14206D00B4A3C321A
:10058000914201D11A4600E02A46074980394A6063
:10059000012180F82110002180F82010416B01B169
:1005A00088472046BDE8F09F8000024008040240D2
:1005B00070B5044600F0BCF90546601C02D0044842
:1005C0000078044400F0B4F9401BA042FAD370BD97
:1005D000000000202DE9F047054626480F46012679
:1005E000017E01290FD00121814601762868DFF8BC
:1005F00088804CF25034022808D0A2462046FFF7EB
:10060000F1FEA8B131E00220BDE8F0872046FFF7F7
:10061000E9FE08BB0120FFF785FE2046FFF7E2FE5A
:10062000D8F81010064621F00401C8F810101CE09C
:100630004FF0FF303860AC6811E02046FFF784FED1
:100640005046FFF7CFFED8F81010060021F0020147
:10065000C8F8101001D03C6007E004F50064D5E94B
:10066000020100EBC120A042E7D8002189F8181050
:100670003046C9E7600000200020024003480169BD
:1006800041F080010161002070470000002002401D
:100690002DE9F05F07461C4888460024017E154678
:1006A0001E46012909D00121814601764CF2503ABB
:1006B0005046FFF797FE18B122E00220BDE8F09FF8
:1006C000012F02D0022F00D00427D346DFF83CA030
:1006D000220128463146FFF747FD81B208EB44006E
:1006E000FFF744FE5846FFF77DFEDAF8102022F0AF
:1006F0000102CAF8102018B9641CE4B2BC42E7D366
:10070000002289F81820D9E760000020002002406C
:10071000064900200A69120607D5054A4A60054ABB
:100720004A600969090600D501207047002002408F
:1007300023016745AB89EFCD2DE9F84FDFF8C8916C
:10074000002409F1040A0AF1040B23460F270BF1D8
:10075000040ED1E00125A54006EA0502AA4276D1A1
:10076000DFF8A8C14E68A6EB0C0866452BD00DDC5F
:10077000032E34D005DC36B3012E19D0022E2FD132
:100780001BE0112E16D0122E2AD119E0B8F5881FC1
:1007900019D006DCB8F5803F15D0B8F5801F1FD101
:1007A00011E0B8F5001F0ED0B8F5041F18D10AE00B
:1007B000CB6815E0CB681B1D12E0CB6808330FE057
:1007C000CB680C330CE08B682BB1012B4FF0080386
:1007D00003D0456104E0042302E0056100E000234A
:1007E000FF2A01D8064601E000F104064FEA84051D
:1007F00001D9A5F12005D6F8008007FA05FC28EA02
:100800000C0803FA05F548EA0508C6F800804D68AB
:10081000ED0070D53E4DAE6946F00106AE61AD69A2
:1008200024F0030605F0010500953A4D06EB050C92
:10083000DCF80850A607360F07FA06F825EA08057F
:10084000DFF8D480404503D14FF0000825E052E0A6
:10085000DFF8C880404502D14FF001081DE0DFF805
:10086000C080404502D14FF0020816E0DFF8B480A6
:10087000404502D14FF003080FE0DFF8AC8040455F
:1008800002D14FF0040808E0DFF8A080404502D113
:100890004FF0050801E04FF0060808FA06F848EAAC
:1008A0000508CCF808804D68D9F80060ED034D4686
:1008B00001D5164300E096432E604D68DAF80060DB
:1008C000AD03554601D5164300E096432E604D68B2
:1008D000DBF80060ED025D4601D5164300E096436B
:1008E0002E604D68DEF80060AD02754601D51643F6
:1008F00000E096432E60641C0A681646E2407FF4CE
:1009000029AFBDE8F88F000000040140000011107D
:10091000001002400000014000080140000C0140AE
:10092000001001400014014000180140001C01406B
:10093000014880687047000000000020024881687C
:10094000027811448160704700000020074810B50C
:10095000016841F010010160032000F075F80020EB
:1009600000F006F800F024F8002010BD002002403E
:1009700070B50D4D04464FF47A712878B1FBF0F054
:100980000A490968B1FBF0F000F0ECFA48B9102C04
:1009900007D200222146501E00F036F800206C607D
:1009A00070BD012070BD0000000000200C00002080
:1009B0000C4808B5816941F001018161816901F04C
:1009C00001010091C16941F08051C161C06900F02D
:1009D000805000900448416821F0E06141F00071CE
:1009E000416008BD0010024000000140002809DB02
:1009F00000F01F02012191404009800000F1E02039
:100A0000C0F8001170470000F0B40E4B1B680C4694
:100A1000C3F30223C3F10705042D00D90425191DD2
:100A2000072901D2002300E0DB1E012606FA05F1AA
:100A3000491E214099409E40761E16403143F0BC2D
:100A400000F02EBF0CED00E0064900F00702086838
:100A50004FF6FF03184040EA0220034A10430860A3
:100A6000704700000CED00E00000FA052DE9F047AA
:100A70000F46050061D0434E306800F00700B842D1
:100A800009D2306820F0070038433060306800F049
:100A90000700B84251D128683B4C810712D5400766
:100AA00003D5606840F4E06060602878000703D5F3
:100AB000606840F4605060606068A96820F0F000F1
:100AC000084360602878C00728D06868012810D0E3
:100AD0002168022810D0890700292EDA616821F0E8
:100AE000030101436160FFF723FF804641F288392B
:100AF0000DE021688903EFE78901EDE7FFF718FFB3
:100B0000A0EB0801494502D90320BDE8F0876068E1
:100B1000696800F00C00B0EB810FEFD1306800F095
:100B20000700B8420BD9306820F007003843306026
:100B3000306800F00700B84201D00120E5E72878CE
:100B4000400705D56068E96820F4E060084360600C
:100B50002878000706D56068296920F4605040EACB
:100B6000C100606000F038F86168084AC1F3031101
:100B7000515CC8400649086006480068FFF7F8FE67
:100B80000020C2E700200240001002402C1E000896
:100B90000C00002004000020044805490068496852
:100BA000044AC1F30221515CC84070470C00002088
:100BB000001002403C1E00080448054900684968CE
:100BC000044AC1F3C221515CC84070470C000020A8
:100BD000001002403C1E000812A185B00FC98DE82C
:100BE0000F0014A0144A006804905168134801F0E3
:100BF0000C03042B10D0082B0ED1C1F38343C9037F
:100C00001DF803000AD5516804AAC1F34041515CA4
:100C10000A4A5043B0FBF1F005B070470849484319
:100C2000FAE7000002030405060708090A0B0C0D89
:100C30000E0F1010010200000010024000127A0096
:100C400000093D002DE9F84F040070D02078C04D18
:100C5000C00749D06868C0F38100012807D06868E0
:100C6000C0F38100022809D16868C00306D528684E
:100C7000800339D560680028E7D035E06068B0F5BA
:100C8000803F0BD010B1B0F5A02F11D0286820F410
:100C900080302860286820F4802002E0286840F432
:100CA00080302860606890B1FFF742FE06460AE097
:100CB000286840F480202860F0E700BFFFF738FE86
:100CC000801B642873D828688003F7D50CE0FFF7F1
:100CD0002FFE064605E000BFFFF72AFE801B6428B2
:100CE000F0D828688003F7D420789A4E80074FF018
:100CF00001094FF0000839D5686810F00C0F07D0D3
:100D00006868C0F38100022809D16868C00306D46E
:100D10002868800714D52069012808D110E02069CF
:100D2000B0B1C6F80090FFF703FE074605E00AE100
:100D3000FFF7FEFDC01B0228C4D828688007F7D53E
:100D40002868616920F0F80040EAC10028600DE0E1
:100D5000C6F80080FFF7ECFD074604E0FFF7E8FD6A
:100D6000C01B022823D828688007F7D42078000702
:100D70002CD57948A169D9B1C0F80090FFF7D8FD0A
:100D8000074604E0FFF7D4FDC01B02280FD8686AAD
:100D90008007F7D571484FF4FA510068B0FBF1F0C5
:100DA000009000BF0098411E0091FAD20EE080E052
:100DB000C0F80080FFF7BCFD074604E0FFF7B8FD70
:100DC000C01B022875D8686A8007F7D420784007CE
:100DD00060D5E8690027C00008D4E86940F0805079
:100DE000E861E869012700F0805000905C480168E4
:100DF000C90513D40168834641F480710160FFF78F
:100E000097FD824606E000BFFFF792FDA0EB0A00C7
:100E100064284ED8DBF80000C005F5D5E06801284D
:100E20000AD008B1052813D0286A20F001002862F2
:100E3000286A20F0040002E0286A40F001002862DD
:100E4000E06841F2883B98B1FFF772FD82460BE003
:100E5000286A40F004002862EEE700BFFFF768FD53
:100E6000A0EB0A0159455AD8286A8007F6D50CE04C
:100E7000FFF75EFD824605E0FFF75AFDA0EB0A0191
:100E800059454CD8286A8007F6D41FB1E86920F08C
:100E90008050E861E06988B36968C1F38101022983
:100EA00044D00228C6F8608004D0FFF741FD044614
:100EB00038E034E0FFF73CFD074604E0FFF738FD7B
:100EC000C01B02282BD828688001F7D4206AB0F50F
:100ED000803F05D16868A16820F40030084368604D
:100EE000D4E908010843696821F474110843686073
:100EF000C6F86090FFF71CFD044606E025E000BF41
:100F0000FFF716FD001B022809D828688001F7D5D5
:100F10001BE000BFFFF70CFD001B022802D90320D5
:100F2000BDE8F88F28688001F4D40EE00128F7D0DE
:100F30006868226A00F48031914204D1616A00F449
:100F40007010884201D00120EAE70020E8E70000A5
:100F50000010024000004242800442420C00002087
:100F60000070004010B5401EB0F1807F01D3012019
:100F700010BD4FF0E02460610F21601700F090FC7D
:100F80000020A06107202061002010BD704770473D
:100F9000F8B5026804461068D168536910F00F0F65
:100FA0004FF0000553D003F0010601F4907737436A
:100FB0005FD0C20705D0CA0503D5226C42F00102FA
:100FC0002264420705D5DA0703D0226C42F0020200
:100FD0002264820705D5DA0703D0226C42F00402AE
:100FE0002264020707D501F02002324303D0226CAD
:100FF00042F008022264226C002A34D0800604D514
:10100000880602D5204600F091FA20684069216CDC
:10101000C0F38010090700D430B3204600F06EFA08
:101020002068416949061BD5416921F040014161B1
:10103000A06BA8B158494163A06BFFF721FA0028C3
:1010400011D0A06B416B01B0BDE8F04008478306AA
:101050000FD58B060DD52046BDE8F84000F066BAE6
:101060002046FFF794FFF8BD2046FFF790FF256468
:10107000F8BD266B2023012E52D1C60650D5CE06D0
:101080004ED5106850680090506940062AD5A16B73
:10109000086840680004000CEAD0A68D8642E7D9B3
:1010A000E0858869202818D0D06820F48070D0604E
:1010B0002068416921F0010141612068416921F006
:1010C0004001416184F83E3025632068C16821F009
:1010D0001001C160A06BFFF7AFF9A08DE18D401A40
:1010E00081B219E0A08DE18D401A81B2E08D002817
:1010F000BED00029BCD0D06820F49070D0602068A9
:10110000426922F00102426184F83E302563206882
:10111000C26822F01002C2602046FFF737FFF8BD18
:1011200005062BD50D0629D594F83D002128F6D1CA
:10113000A068B0F5805F01D12069B0B1206A411C80
:101140002162216800784860E08C401E0004000C99
:10115000E084E4D12068C16821F08001C16020688A
:10116000C16841F04001C160F8BD206A0088C0F349
:1011700008005060206A801C2062E5E74006F3D535
:101180004806F1D5D168204621F04001D16084F8AD
:101190003D3000F0F6F8F8BDED14000870B504001D
:1011A00004D094F83D00002510B106E0012070BD88
:1011B00084F83C50204600F023F8242084F83D00B9
:1011C0002068C16821F40051C160204600F00AFA8D
:1011D0002068016921F4904101612068416921F092
:1011E0002A0141612068C16841F40051C160256451
:1011F000202084F83D0084F83E00002070BD0000EF
:1012000030B585B0002400940194029403940068E2
:10121000184988422CD11848816941F48041816184
:10122000816901F480410491816941F00401816187
:101230008069124D00F0040004904FF4007000909B
:10124000022001900320039069462846FFF774FAB4
:101250002815CDE90004694628460294FFF76CFA88
:10126000002211462520FFF7CFFB2520FFF7BEFB0C
:1012700005B030BD003801400010024000080140B8
:1012800090F83E30202B0ED159B152B190F83C303D
:10129000012B08D0012380F83C300023036300F0C9
:1012A000FDB90120704702207047000010B50068AA
:1012B0000549884207D10548007800F0ABFDBDE83C
:1012C0001040FEF7C7BF10BD00380140E400002009
:1012D0002DE9F843044690F83D001F4616460D469A
:1012E00020284CD1C5B1BEB194F83C00012846D0AD
:1012F000012084F83C004FF00008C4F84080212011
:1013000084F83D00FFF714FBA6848146E684A068BC
:10131000B0F5805F03D004E00120BDE8F8832069C8
:1013200028B12E465FF0000584F83C800EE00026D0
:10133000FAE78021204600F0CCF9A0B9AEB116F84A
:10134000010B21684860E08C401EE084E08C4B4635
:101350004FF0000200970028EBD14FF040012046EB
:1013600000F0B7F930B10320D7E735F8020BC0F32E
:101370000800E6E7202084F83D000020CDE70220A9
:10138000CBE77047FEE7000010B5134C20684FF420
:101390000051B1EB104F1ED1214610A000F070FAA1
:1013A000211D18A000F06CFA0120FFF701F9636815
:1013B000206880F308880020421E810001F1E021AE
:1013C000C1F88021C1F88022401CC0B20828F4D3A3
:1013D000BDE81040184710BD005000082020202014
:1013E0002020202041505020737461727420616469
:1013F0006472657373203A203078253038580D0AAE
:10140000000000004A756D7020746F20415050201C
:1014100072657365742061646472657373203A2029
:101420003078253038580D0A00000000054808B50E
:10143000816941F004018161806900F0040000903D
:1014400008BD0000001002400C4810B50A490160B8
:101450004FF4E1314160002181600C22C160C0E99C
:1014600004128161C161FFF799FE002803D0BDE835
:101470001040FEF7FBBE10BD0038014018000020F0
:10148000FEE7FEE770477047FFF758BA30B58FB0F8
:1014900028216846FEF77FFE14210AA8FEF77BFE8E
:1014A00001210804CDE900100024029402250491D2
:1014B000CDE907504FF4E01009906846FFF7C2FBF2
:1014C00008B172B6FEE70F20CDE90A054FF480603F
:1014D000CDE90C4002210AA80E94FFF7C7FA0028B4
:1014E00001D072B6FEE70FB030BD704710B5406A4C
:1014F0000021C185C184FFF74AFD10BD0168CA689B
:1015000022F49072CA6001684A6922F001024A61BD
:10151000016B012904D10168CA6822F01002CA6077
:10152000202180F83E1000210163704708B590F833
:101530003E10222901D0022008BD82684FF480535A
:101540009A4201D1016921B1816A9A421BD04AB104
:101550000AE00268816A5268C2F308020A80816A5E
:10156000891C08E0026972B10268526802F07F02C9
:101570000A70816A491C8162C18D491E0904090CE7
:10158000C18503D019E002685268F1E70168CA68B2
:1015900022F02002CA600168CA6822F48072CA6020
:1015A00001684A6922F001024A61202180F83E1058
:1015B000016B012903D0FFF779FE002008BD00214F
:1015C00001630168CA6822F01002CA6001680A68F3
:1015D000D20602D50A6849680091818DFFF7D6FCD2
:1015E000EBE7000070B5044600680169E26821F489
:1015F0004051114301612169A068084361690843B2
:101600002168CA6841F20C639A430243CA602068A9
:101610004169A26921F44071114341611E4920686A
:10162000884202D1FFF7C8FA01E0FFF7B5FA00EBF4
:10163000C00101EB0012606864218000B2FBF0F38E
:10164000B3FBF1F36FF018067343B2FBF0F5B2FB96
:10165000F0F605EB8305322303EB0515B5FBF1F539
:10166000B6FBF1F605F0F00505EB0615B2FBF0F65A
:10167000B2FBF0F0B0FBF1F06FF01802504306EB54
:10168000800003EB0010B0FBF1F0216800F00F00C8
:101690002844886070BD0000003801408162828566
:1016A000C28500210164222280F83E2080F83C108F
:1016B0000168CA6842F48072CA6001684A6942F0EF
:1016C00001024A610068C16841F02001C160002048
:1016D00070472DE9F041984617460E460446069D90
:1016E0001DE0681C1BD02DB1FFF722F9A0EB08000C
:1016F000A84214D92068C16821F4D071C160206863
:10170000416921F001014161202084F83D0084F805
:101710003E00002084F83C000320BDE8F0812068F2
:10172000006836EA000004D00020B842D9D000207A
:10173000F3E70120F9E700000148FFF729BC0000AA
:10174000180000202DE9F043DFF88880ADF2044D49
:10175000D8F80000B0F11A3F07D01FA000F090F8B1
:10176000FF200DF2044DBDE8F083FEF79BFD1F4DF9
:101770003B212846FEF77CFD08B11DA021E0224F49
:1017800000244FF480764FF4EC3932466946E01974
:10179000FEF794FD324669466019FEF79BFD30B1B5
:1017A0004FF48062611919A000F06AF80BE004F5AB
:1017B00080644C45E9D301214046FEF759FD20B134
:1017C00022A000F05DF80120CBE728A000F058F837
:1017D0000020C6E7004000084E6F207570677261F8
:1017E00064652066696C650D0A0000000050000801
:1017F0004572617365206D637520666C6173682046
:101800006572726F720D0A000028020857726974BF
:1018100065206D637520666C6173682073746172F6
:10182000742061646472657373203A2030782530C7
:101830003758206275664C656E203A202564204238
:1018400079746573206661696C0D0A004572617375
:101850006520617070207570677261646520666CC8
:101860006167206572726F720D0A000055706772B1
:10187000616465204F4B0D0A00000000FEE7000088
:101880000FB4054B10B503A9044A029800F028F8DC
:1018900010BC5DF814FB0000451D0008140000207A
:1018A0000907090E002804DB00F1E02080F800148D
:1018B000704700F00F0000F1E02080F8141D704721
:1018C00002E008C8121F08C1002AFAD17047704709
:1018D000002001E001C1121F002AFBD17047000067
:1018E0002DE9FF4F8DB00F460546002606E025285E
:1018F0000BD0DDE90F1290476D1C761C287800286C
:10190000F5D111B03046BDE8F08F0024A246A146C3
:101910000122EC4900E0044315F8013F203B02FAA4
:1019200003F00842F7D128782A2810D06FF02F0250
:101930002878A0F13001092914D80AEB8A0102EBBA
:10194000410144F0020400EB010A6D1CF0E701CFF5
:101950005FEA000A03D544F40054CAF1000A44F0D7
:1019600002046D1C28782E2817D115F8010F44F0B9
:1019700004042A280ED06FF02F022878A0F130013D
:1019800009290AD809EB890102EB410100EB0109A1
:101990006D1CF2E757F8049B6D1C28786C280FD05B
:1019A00006DC4C2817D068280DD06A2814D104E032
:1019B000742810D07A280FD10DE044F400140AE006
:1019C00044F4801401E044F440146978814202D167
:1019D00004F580146D1C6D1C2A786E2A1FD00CDC57
:1019E000632A31D004DC002A8BD0582A11D1A3E01D
:1019F000642A68D0692A0CD165E0732A2ED004DCF1
:101A00006F2A73D0702A04D19BE0752A6FD0782A90
:101A10006ED01046DDE90F129047761C50E1C4F3FA
:101A20000250022806D0032809D0042801CF09D08B
:101A3000066045E101CFF117C0E9006140E101CF47
:101A400006803DE106703BE117F8040B8DF80000BD
:101A500000208DF80100EB46012003E057F804BB9D
:101A60004FF0FF3061074FF0000102D40DE008F1A4
:101A70000101884649450FDA8045F8DB1BF808105C
:101A80000029F4D108E008F1010188468142FADB1F
:101A90001BF808100029F6D1DDE90F23AAEB080096
:101AA0008146214600F036F9304400EB080604E098
:101AB000DDE90F121BF8010B9047B8F10108F7D2CE
:101AC00021464846F7E00A21C4F302534FF0000BC9
:101AD0000891022B04D001CFC117032B09D00AE0D3
:101AE000FF1D27F00707F7E8020108E032E01FE0DA
:101AF00020E000B2C117042B01D140B2C117031E70
:101B000071F1000307DA4FF0000CD0EB0C006CEB26
:101B100001012D2302E0230504D52B238DF8243069
:101B2000012303E0E30701D02023F7E7984658E0BC
:101B30000A2110E010210EE010204FF0000B089059
:101B40000CE010214FF0000B44F004044FF00809A2
:101B5000089103E008214FF0000B0891C4F30253F1
:101B6000022B04D001CF0021032B06D006E0FF1D7D
:101B700027F00707F7E8020103E080B2042B00D149
:101B8000C0B24FF0000823072BD5702A07D0DDF82C
:101B900020C08CF0100C5CEA0B0C05D00EE040234A
:101BA0008DF82430012308E050EA010306D03023E9
:101BB0008DF824308DF8252002239846DDF820C0CA
:101BC0008CF0080C5CEA0B0C0BD150EA010301D13C
:101BD000630706D530238DF824304FF00108A9F1B2
:101BE0000109582A04D038A20B9208AA0A920BE0E5
:101BF0003AA2F9E75B46089AFEF7D8FA0B9B9B5C82
:101C00000A9A521E0A92137050EA0102F2D10A98FF
:101C1000ADEB000000F1200B600702D524F4803406
:101C200001E04FF00109D94502DDA9EB0B0000E00E
:101C3000002000EB0B0141440890AAEB010AE003ED
:101C400006D4DDE90F232146504600F063F8064430
:101C50004FF0000908E009A911F80900DDE90F12A9
:101C6000904709F10109761CC145F4DBE0030CD56E
:101C7000DDE90F232146504600F04CF8064404E00D
:101C8000DDE90F1230209047761C0899481E089015
:101C90000029F5DC08E00A980A990078491C0A91A5
:101CA000DDE90F129047761CBBF10001ABF1010B8F
:101CB000F1DC21465046DDE90F2300F019F8064417
:101CC0006D1C1BE6092801003031323334353637BC
:101CD0003839616263646566000000003031323378
:101CE0003435363738394142434445460000000018
:101CF0002DE9F041044600251E461746880404D409
:101D000005E039462020B0476D1C641EF9D52846F1
:101D1000BDE8F0812DE9F041044600251E469046BD
:101D2000C80301D5302700E02027880404D505E04A
:101D300041463846B0476D1C641EF9D52846BDE8BB
:101D4000F081000013B54FF6FF7301226946024887
:101D5000FFF7BEFA00981CBD18000020FEF7F6FD44
:101D6000FFF794FBFFF762FBFFF76EFBFEF772FADB
:101D70006420FEF71DFC08A0FFF782FDFFF7E2FCE0
:101D8000012802D0FFF700FBFEE70AA0FFF778FD6D
:101D900014A0FFF775FDFEE70D0ABDF8C8EB204261
:101DA0006F6F746C6F6164657220B3CCD0F2210DDB
:101DB0000A000000C9FDBCB6CAA7B0DC2120CBC018
:101DC000D1ADBBB7D4DA20426F6F746C6F616465BC
:101DD0007220B3CCD0F2D6D0202E2E2E2E2E2E0D49
:101DE0000A000000B9D8B5E7D6D8C6F4A3ACD6D857
:101DF000D0C2C9FDBCB6A3A1BBF220D3C3C9D5C212
:101E0000BCC6F7D6D8D0C2C9D5C2BCC9E8B1B8A340
:101E1000A10D0A00044A034B11785854491C117053
:101E2000704700008000002010000020000000002B
:101E3000000000000102030406070809000000007A
:101E400001020304641E00080000002018000000C6
:101E5000C01800087C1E0008180000203005000093
:101E6000D018000801000000100000000000000071
:0C1E70000024F40000000000000000004E
:0400000508000131BD
:00000001FF
